:03000000021C3EA1
:0C1C3E00787FE4F6D8FD758121021C853A
:08149F004101490041014A002E
:1022F900D2AF7F027E00121A531222AE12118F1230
:0423090016F680F84C
:101B02009000A2EFF0D394395013E0C39430400D0B
:101B120012238B9000A2E024D0FF021E489000A264
:101B2200E0B4260712238BE4FF805D9000A2E0B4AC
:101B3200250712238B7F01804F9000A2E0B4280773
:101B420012238B7F0280419000A2E0B42707122368
:101B52008B7F0380339000A2E0B40D0612238B0228
:101B62000D4E9000A2E0B41B0612238B021F899037
:101B720000A2E0B4010612238B021FE69000A2E04D
:101B8200B4020812238B7F0402199F9000A2E0B4D2
:101B9200030612238B02210D9000A2E0B40402B2CC
:021BA2000A2215
:041A5300AB07AA062D
:101A57009000A012080F000F4240AE02AF03E4FC53
:101A6700FD9000A0E0F8A3E0F9A3E0FAA3E0FB12E1
:101A7700067CE47BE87A03F9F81207079000A012C6
:101A870007F79000A0E0F8A3E0F9A3E0FAA3E0FBD2
:101A9700C3E49BFFE49AFE740199FDE498FC90006F
:101AA700A01207F79000A0E0FCA3E0FDA3E0FEA3CF
:101AB700E02412FFE43EFEE43DFDE43CFC9000A080
:101AC7001207F79000A0E0FCA3E0FDA3E0FEA3E06F
:101AD700FF78081207B8900149EFF09000A0A3A380
:101AE700A3E090014AF05389F0438901900149E04E
:0A1AF700F58CA3E0F58AD2A9D28C89
:011B010022C1
:03000B0002207E52
:10207E00C0E0C0F0C083C082C0D075D000C000C028
:10208E0001C002C003C004C005C006C007900149CC
:10209E00E0F58CA3E0F58A120FCC1218DBD007D036
:1020AE0006D005D004D003D002D001D000D0D0D0BD
:0820BE0082D083D0F0D0E032A3
:1022CF0030003D002B002D005E00202020204552C5
:0522DF00524F522100E6
:1014A70041010B004100FD004400DD000000004445
:1014B70000E1000000004400F9000000004100DBEB
:0714C700004100DC00C10937
:101E48009000A3EFF09000FDE0D394014003121F2F
:101E5800E69000FDE070279000DBE0FFC3940A5095
:101E68004E9000A3E02430FE74E52FF582E43400A0
:101E7800F583EEF09000DBE004F07D01802C90000B
:101E8800FDE0B4012A9000DCE0FFC3940A502090E2
:101E980000A3E02430FE74EF2FF582E43400F583CC
:101EA800EEF09000DCE004F07D027F01121D52226A
:101F89009000FDE070269000DBE0FFC3940A504CFE
:101F9900200949D20974E52FF582E43400F58374E8
:101FA9002EF09000DBE004F07D01802B9000FDE035
:101FB900B401299000DCE0FFC3940A501F20091CDA
:101FC900D20974EF2FF582E43400F583742EF09072
:0D1FD90000DCE004F07D027F01121D5222A9
:10199F009000A3EFF09000FDE070537B017A007987
:1019AF00E51223D59000DD1207F7C2099000DBE0A6
:1019BF00FFC374109FFBE4FDFF12237A7D01E4FF48
:1019CF00121D52121EB87B0E7D017F0112237A7BEE
:1019DF00FF7A2279CF7D017F0F1221C79000A3E0FC
:1019EF0090010BF0E49000DBF09000FD04F090000C
:1019FF00FDE06402704DC2099000F9E0FCA3E0FD28
:101A0F00A3E0FEA3E0FF9000DD1207F77B10E4FDDB
:101A1F00FF12237A90010AE0FFC374109FFF7B012E
:101A2F007A0079FEE4FD1221C77B107D01E4FF12DD
:101A3F00237A121EB89000A3E090010BF09000FDE6
:041A4F007401F0220C
:100D4E007B017A0079EF1223D59000E11207F7901C
:100D5E0000FDE064016003020FAE7402F0C2099060
:100D6E00010BE014603514605314607114700302AB
:100D7E000E0C24046003020E379000E1E0FCA3E0A9
:100D8E00FDA3E0FEA3E0FF9000DDE0F8A3E0F9A3F1
:100D9E00E0FAA3E0FB120015020E319000E1E0F83C
:100DAE00A3E0F9A3E0FAA3E0FB9000DDE0FCA3E0F2
:100DBE00FDA3E0FEA3E0FF12001180679000E1E0CA
:100DCE00FCA3E0FDA3E0FEA3E0FF9000DDE0F8A3AE
:100DDE00E0F9A3E0FAA3E0FB12010680469000E1E1
:100DEE00E0F8A3E0F9A3E0FAA3E0FB9000DDE0FC5D
:100DFE00A3E0FDA3E0FEA3E0FF12020F802590000A
:100E0E00E1E0FCA3E0FDA3E0FEA3E0FF9000A7124B
:100E1E0007F79000DDE0FCA3E0FDA3E0FEA3E0FFFA
:100E2E001213399000F91207F790010BE0FBE4FD65
:100E3E00FF121EC19000DCE0FFC374109FFBE4FDA7
:100E4E007F0112237A7D02E4FF121D527BFF7A226C
:100E5E0079D17D01E4FF1221C7E49000DCF07F2000
:100E6E007EBC7DBE7C4C9000F9E0F8A3E0F9A3E0D7
:100E7E00FAA3E0FB1202AC4003020FAB7F207EBC54
:100E8E007DBE7CCC9000F9E0F8A3E0F9A3E0FAA3D4
:100E9E00E0FB1202AC60025003020FAB9000F9E0CF
:100EAE00FCA3E0FDA3E0FEA3E0FF120363EC12033C
:100EBE00259000F9E0F8A3E0F9A3E0FAA3E0FB1215
:100ECE0002AC701A7B017A0079FE9000F9E0FCA367
:100EDE00E0FDA3E0FEA3E0FF121DCF020F83E4FFAF
:100EEE00FEFDFC9000F9E0F8A3E0F9A3E0FAA3E020
:100EFE00FB1202AC40257F177EB77DD17C38900067
:100F0E00F9E0F8A3E0F9A3E0FAA3E0FB1202AC507B
:100F1E000A9000F912080F00000000E4FFFE7D8029
:100F2E007C3F9000F9E0F8A3E0F9A3E0FAA3E0FB20
:100F3E001202AC600250277F727EF97D7F7C3F905B
:100F4E0000F9E0F8A3E0F9A3E0FAA3E0FB1202AC8B
:100F5E00600C400A9000F912080F3F8000007B01E0
:100F6E007A0079FE9000F9E0FCA3E0FDA3E0FEA379
:100F7E00E0FF121CCA90010AEFF012228A7B107D4C
:100F8E00017F0112237A90010AE0FFC374109FFFC4
:100F9E007B017A0079FE7D011221C7800312214E5A
:100FAE007E007F0A7D007B017A0079E512089F7E24
:0E0FBE00007F0A7D007B017A0079EF02089F18
:10228A007B007A0079009000A77414F07D40122038
:10229A00C67B017A0079FE90010AE09000A7F07DE2
:0422AA00400220C608
:10210D001223D07B017A0079A49000B4740CF07D79
:10211D0040121F25E49000A3F090010AE0FE90000C
:10212D00A3E0FFC39E501974A42FF582E43400F58B
:10213D0083E0FBE4FD1200039000A3E004F080D9DE
:01214D00226F
:091EB8009000A3E0FB7D01E4FFB2
:101EC1009000A4EFF0A3EDF0EB14601D14602A1450
:101ED100603314603D2404704A9000A4E0FFA3E045
:101EE100FD7BFF7A2279D380379000A4E0FFA3E045
:101EF100FD7BFF7A2279D580279000A4E0FFA3E043
:101F0100FD7B78800A9000A4E0FFA3E0FD7BFD0249
:101F110000039000A4E0FFA3E0FD7BFF7A2279D7C4
:041F21001221C722A0
:101D52009000A5EDF09000A4EFF07033A3E0B40181
:101D6200129000DBE0FFC374109FFF7B017A0079C1
:101D7200E580189000A5E0640270519000DCE0FF5D
:101D8200C374109FFF7B017A0079EFE4FD803A90E3
:101D920000A4E064017035A3E0B401149000DBE01C
:101DA200FFC374109FFF7B017A0079E57D018019E2
:101DB2009000A5E0B402159000DCE0FFC374109F10
:0D1DC200FF7B017A0079EF7D011221C7221D
:101FE6009000DD12080F000000009000E112080FBB
:101FF60000000000C2097E007F0A7D007B017A0096
:1020060079E512089F7E007F0A7D007B017A0079C0
:10201600EF12089FE49000DBF0A3F09000FDF012B1
:0F20260023D07BFF7A2279CF7D017F0F0221C764
:10214E009000A37427F0A37410F0121FE6300A1249
:10215E009000A374FFF5F012066645F06004B2A479
:10216E0080EE7BFF7A2279D9E4FDFF1221C712237C
:10217E00AC121FE67BFF7A2279CF7D017F0F022101
:01218E00C789
:0C23BB002531306C640025352E3566009D
:101DCF009000A61207F79000A3EBF0A3EAF0A3E9A7
:011DDF00F013
:101DE000C003C002C0019000AD74FFF0A37423F0E3
:101DF000A374BBF09000A6E0FCA3E0FDA3E0FEA36B
:101E0000E0FF1203639000B01207F7D001D002D0B8
:101E1000031209309000AD74FFF0A37423F0A37493
:101E2000BBF09000A6E0FCA3E0FDA3E0FEA3E0FF72
:101E30001203639000B01207F79000A3E0FBA3E049
:071E4000FAA3E0F9120930DA
:011E47002278
:101CCA009000A61207F79000A3EBF0A3EAF0A3E9AD
:011CDA00F019
:101CDB009000AD74FFF0A37423F0A374C1F09000D7
:101CEB00A6E0FCA3E0FDA3E0FEA3E0FF9000B01292
:101CFB0007F71209309000AD74FFF0A37423F0A323
:101D0B0074C1F09000A6E0FCA3E0FDA3E0FEA3E00D
:101D1B00FF9000B01207F79000A3E0FBA3E0FAA33B
:101D2B00E0F9120930AE071FEED394004017900074
:101D3B00A3E0FBA3E0FAA3E0F98F82758300120600
:061D4B0027643060E00F88
:011D5100226F
:0323D5001220359E
:0123D80022E2
:10236900D2A2D2A300000000C2A200000000C2A3B2
:012379002241
:1022E400C2A3C2A200000000D2A300000000D2A238
:0522F4000000000022C3
:10218F00C2007E80EE601B5F7004C2A28002D2A2EA
:10219F0000000000D2A300000000C2A3EEC313FE94
:1021AF0080E2D2A200000000D2A3A2A292000000FF
:0721BF000000C2A3A200B35F
:0121C60022F6
:1021FD00D2A27E80EE601D00000000D2A320A205B9
:10220D00F45FFF8003EF4EFF00000000C2A3EEC39A
:10221D0013FE80E0C2A200000000D2A30000000067
:02222D00C2A34A
:01222F00228C
:10223000D2A27E80EE601D00000000D2A320A20585
:10224000F45FFF8003EF4EFF00000000C2A3EEC367
:1022500013FE80E0D2A200000000D2A30000000024
:02226000C2A317
:012262002259
:101F25009000B0EBF0A3EAF0A3E9F01223697FA0DB
:101F350012218F40051222E480F1AF0512218F1284
:101F450023697FA112218F9000B4E0D39401401F33
:101F55001221FD9000B0E0FBA3E475F001120666C6
:101F6500A9F0FAEF1206549000B4E014F080D812EC
:101F750022309000B0E0FBA3E0FAA3E0F9EF1206EF
:041F8500540222E4FC
:1020C6009000A3EBF0A3EAF0A3E9F09000A7E0FFED
:1020D60014F0EF60311223697FA012218F400512A0
:1020E60022E480F1AF050D12218F9000A3E0FBA33F
:1020F600E475F001120666A9F0FA12060EFF122127
:072106008F1222E480C522C4
:0223DD003000CE
:102321007580FFC2A7D2A6D2A5AF80C2A5EF20E7D4
:01233100F6B5
:012332002288
:10233300AE07122321C2A7C2A6AF068F80D2A5C2C1
:02234300A522D1
:10234500AE07122321D2A7C2A6AF068F80D2A5C29F
:02235500A522BF
:1022AE007F381223337F0C1223337F061223337FA2
:1022BE00011223337BFF7A2379DD7D017F0F02210B
:0122CE00C748
:10235700ED7004AC078004EF2440FCEC4480FF02DE
:0223670023331E
:1021C7009000A6EBF0A3EAF0A3E9F01223579000E2
:1021D700A6E0FBA3E0FAA3E0F912060E6017900051
:1021E700A6A3E475F001120666A9F0FA12060EFF1F
:0621F70012234580D922ED
:08000300122357AF030223454D
:10237A00122357AF031BEF60077F2012234580F318
:01238A002230
:0523D0007F0102233330
:0214CE00C10A51
:10238B00300A08D2A41223C7C2A422200A02D2A464
:01239B00221F
:0823C7007F027E27DEFEDFFC31
:0123CF0022EB
:0E23AC0000007F087E9A7D7ADDFEDEFCDFFAFF
:0123BA002200
:10239C00313233263435362537383928301B0D2762
:1014D00050012D0101010101010101010101010181
:1014E000010101A0404000000000000000000000D9
:1014F00000000000000000000000000000000000EC
:1015000000000000000000000000000000000000DB
:1015100000000000000000000000000000000000CB
:1015200000000000000050010C0101010101010157
:10153000010101010101010101A04000000003E8D7
:10154000000003E8000003E8000003E8000003E8EF
:10155000000003E8000003E8000003E8000003E8DF
:10156000000003E8000003E8000003E8000003E8CF
:10157000000003E8000003E8000003E841011C004C
:1015800050011DFFFFFFFFFFFFFFFFFFFFFFFFFFFA
:03159000FFFFFF5B
:10118F00E49000A0F0E49000A1F09000A1E0C394DF
:10119F00044003021329E0FF9000A0E0FE25E025A4
:1011AF00E0242DF582E43401F583E5822FF582E406
:1011BF003583F583E0FDEE25E025E0240CF582E490
:1011CF003401F583E5822FF582E43583F583E06DF5
:1011DF006061ED70219000A0E025E025E0249CF5F2
:1011EF0082E43423F583E5822FF582E43583F5839A
:1011FF00E493FF121B029000A1E0FF9000A0E0FE1D
:10120F0025E025E0242DF582E43401F583E5822FD6
:10121F00F582E43583F583E0FDEE25E025E0240C2F
:10122F00F582E43401F583E5822FF582E43583F509
:10123F0083EDF09000A0E0C454F02440F8A3E02523
:10124F00E025E028F8E2FC08E2FD08E2FE08E2FFF4
:10125F00E4FBFAF9F8C31207A74003021307900043
:10126F00A0E0FFC454F02400F8A3E0FE25E025E041
:10127F0028F8E2FB08E2F908E2FA08E2CBF8C0002E
:10128F00EFC454F02440F8EE25E025E028F8E2FC06
:10129F0008E2FD08E2FE08E2FFD000D31207A750D4
:1012AF00709000A1E0FF9000A0E025E025E0249CD5
:1012BF00F582E43423F583E5822FF582E43583F557
:1012CF0083E493FF121B029000A0E0C454F02400AB
:1012DF00F8A3E025E025E028F8C000E2FC08E2FDD5
:1012EF0008E2FE08E224C8FFE43EFEE43DFDE43CD4
:1012FF00FCD00012080380199000A0E0C454F02421
:10130F0000F8A3E025E025E028F8120840000003CC
:10131F00E89000A1E004F00211999000A0E004F021
:09132F00E0C39404500302119480
:011338002292
:100FCC0090011CE0FF25E025E0241DF582E43401AE
:100FDC00F583E025E0FEA293E4334EFEEF25E025F9
:100FEC00E0241DF582E43401F583EEF090011CE061
:100FFC00FF25E025E0241EF582E43401F583E0258D
:10100C00E0FEA292E4334EFEEF25E025E0241EF52F
:10101C0082E43401F583EEF090011CE0FF25E0251D
:10102C00E0241FF582E43401F583E025E0FEA29173
:10103C00E4334EFEEF25E025E0241FF582E4340175
:10104C00F583EEF090011CE0FF25E025E02420F56F
:10105C0082E43401F583E025E0FEA290E4334EFEF9
:10106C00EF25E025E02420F582E43401F583EEF051
:10107C00E49000DAF09000DAE0FFC394044003023D
:10108C00116490011CE025E025E0241DF582E43478
:10109C0001F583E5822FF582E43583F583E0540F67
:1010AC0070509000DAE0FF90011CE0FE25E025E096
:1010BC00242DF582E43401F583E5822FF582E435A5
:1010CC0083F583E4F0EEC454F02440F8EF25E025DA
:1010DC00E028F8C000E2FC08E2FD08E2FE08E22489
:1010EC0004FFE43EFEE43DFDE43CFCD000120803AA
:1010FC00805D9000DAE0FF90011CE0FE25E025E029
:10110C00241DF582E43401F583E5822FF582E43564
:10111C0083F583E0540FFFBF0F359000DAE0FFEE4C
:10112C0025E025E0242DF582E43401F583E5822FBA
:10113C00F582E43583F5837401F0EEC454F0244059
:10114C00F8EF25E025E028F8120840000000009098
:10115C0000DAE004F002108190011CE004F0E0548D
:10116C0003F014600F14601114601324037013D275
:10117C0097C29422D294C29522D295C29622D2962C
:02118C00C29708
:01118E00223E
:0423D90001020304F6
:10159300440145010101019090000000000000009A
:1015A30000000000000000000044013D01010101B2
:1015B3009080000003E8000003E8000003E8000057
:0915C30003E8440141FFFFFFFFB2
:1016F600E49000A0F09000A0E0C394044003021719
:10170600F4E0FF2445F582E43401F583E0FE743D00
:101716002FF582E43401F583E06E602BEE700C90B9
:1017260000A0E09023D993FF121B029000A0E0FFD7
:101736002445F582E43401F583E0FE743D2FF582FD
:10174600E43401F583EEF09000A0E025E025E024E6
:1017560090F8E2FC08E2FD08E2FE08E2FFE4FBFA8C
:10176600F9F8C31207A7506B9000A0E0FF25E0250B
:10177600E02480F8E2FB08E2F908E2FA08E2CBF896
:10178600C000EF25E025E02490F8E2FC08E2FD0821
:10179600E2FE08E2FFD000D31207A750489000A04F
:1017A600E09023D993FF121B029000A0E025E025CC
:1017B600E02480F8C000E2FC08E2FD08E2FE08E250
:1017C60024C8FFE43EFEE43DFDE43CFCD0001208E4
:1017D6000380129000A0E025E025E02480F812089E
:0E17E60040000003E89000A0E004F00216FBB3
:0117F40022D2
:1018DB00900141E025E0FFA2B4E4334FF0A3E025F3
:1018EB00E0FFA2B5E4334FF0A3E025E0FFA2B6E49E
:1018FB00334FF0A3E025E0FFA2B7E4334FF0E490C1
:10190B0000DAF09000DAE0FFC39404400302199E62
:10191B0074412FF582E43401F583E0540F70379056
:10192B0000DAE0FF2445F582E43401F583E4F0EFBF
:10193B0025E025E02490F8C000E2FC08E2FD08E277
:10194B00FE08E22404FFE43EFEE43DFDE43CFCD053
:10195B000012080380349000DAE02441F582E4346D
:10196B0001F583E0540FFFBF0F209000DAE0FF2456
:10197B0045F582E43401F5837401F0EF25E025E0B1
:10198B002490F8120840000000009000DAE004F008
:03199B0002190E20
:01199E002226
:10000E000203CFE86480F8E933E83360110460F04E
:10001E00ED33EC337009E8FCE9FDEAFEEBFF220458
:10002E0060DED3EB9FEA9EE99DE8C2E78CF0C2F753
:10003E0095F0400CE8CCF8E9CDF9EACEFAEBCFFB1F
:10004E0012039A85D0F05804700320D5B3E80470DB
:10005E00075002B2D50203D992D5EC0460F7E4CC76
:10006E00C0E0C398F8603B94186008400DD0E0FBE8
:10007E000203B1E4FBFAC9FC8028E830E406E4C9C7
:10008E00FBE4CAFCE830E305E4C9CACBFCE854073C
:10009E006010F8C3E913F9EA13FAEB13FBEC13FC47
:1000AE00D8F130F52FC3E49CFCEF9BFFEE9AFEEDEA
:1000BE0099FDD0E0FBEF4E4D4C701222DB03020394
:1000CE00D6EC2CFCEF33FFEE33FEED33FDED30E7D7
:1000DE00EB0203B1EF2BFFEE3AFEED39FDD0E0FB64
:1000EE0050130BBB00030203D9ED13FDEE13FEEF0D
:0800FE0013FFEC13FC0203B137
:10010600EC4D6011E8497017ED33EC3304600DE4F3
:10011600FCFFFEFD22E933E8330470F80203CF1238
:10012600039A58046009E4CC248150062850090239
:1001360003D92840030203D6C0E0EB4A7044B980D5
:1001460006D0E0FB0203C5EF4E701CBD8008EBFF36
:10015600EAFEE9FD80EBE98DF0A4FEE5F00201EF91
:10016600E9CDF9EAFEEBFFEF89F0A4FCE5F0CE89D4
:10017600F0A42EFFE435F0CD89F0A42DFEE435F091
:100186008067EF4E7005BD80D780C3EF8BF0A4ACBF
:10019600F0EE8BF0A42CFCE435F0F8EF8AF0A42CFA
:1001A600E5F038FCE433CB8DF0A42CFCE5F03BF80D
:1001B600EE8AF0A42CFCE5F038F8E433CF89F0A4FD
:1001C6002CFCE5F038CF3400CE89F0A42FFFE5F003
:1001D6003EFEE433C98DF0A42EFEE5F039CD8AF05B
:1001E600A42FFFE5F03EFEE43DFD33D0E0FB5007D3
:1001F6000BBB000F0203D9EC2CFCEF33FFEE33FEF2
:06020600ED33FD0203B11F
:10020C000203D9EC5D046005E8590470030203CFC6
:10021C0012039A580460F6EC4860F2EC7004FDFE90
:10022C00FF22C860DB2481C85009C39860025006C5
:10023C000203D69850CAF582E9294B4A7005AB8265
:10024C000203C575F0007C1A7880C3EF9BEE9AED23
:10025C0099400DC3EF9BFFEE9AFEED99FDE842F03D
:10026C00DC23ACF0D0E0FFD0E0FED0E0FDAB822090
:10027C00E7101BEB60BAEC2CFCEF33FFEE33FEED1A
:10028C0033FD0203B1E803F830E705C0F075F00068
:10029C00EF2FFFEE33FEED33FD40B830E7C280AAFE
:1002AC0074F8CC6480CCC86480C8F58204604FC3F9
:1002BC00EB9FF5F0EA9E42F0E99D42F0E89C45F098
:1002CC00603C501DE5825FFFE582D313CB5BCBF422
:1002DC002B5582FB50280ABA002409B9002008804B
:1002EC001DE5825BFBE582D313CF5FCFF4C3132FE5
:1002FC005582FF50090EBE00050DBD00010CC3EB6D
:10030C009FF5F0EA9E42F0E99D42F0E89C45F060D2
:09031C0007CC4820E701B3EC22F4
:1003250075F020800E75F010800575F0087D007E53
:10033500007F003392D530D503120799EC33401076
:10034500EF33FFEE33FEED33FDEC33FCD5F0ED225C
:0E035500E5F0247EA2D513CC92E7CDCEFF2298
:10036300EDD2E7CD33EC3392D524814006E4FFFE92
:10037300FDFC22FCE4CFCECDCC24E0501174FF80F1
:10038300EDC3CC13CCCD13CDCE13CECF13CF04708E
:07039300F030D5DE020799EE
:1008CB00E50824ADF582E43400F583E005082290B9
:1008DB0000AA3007039000ADE475F001120859022D
:1008EB00060E2000E97F2ED2008018EF540F2490C3
:1008FB00D43440D4FF30040BEF24BFB41A005003A0
:10090B002461FFE50960021509050CE50C70020571
:10091B000B30070E9000AAE475F001120859EF0294
:10092B0006540222637403D2078003E4C207F5085E
:10093B009000AA120870E4F509F50BF50CE50960B7
:10094B00077F2012090E80F5750AFFC201C200C293
:10095B0002C203C205C206C2081208DAFF700D30CC
:10096B0007057F0012091FAF0CAE0B22B4255FC227
:10097B00D5C2041208DAFF24D0B40A00501A75F05D
:10098B000A780930D50508B6FF0106C6A426F6205D
:10099B00D5047002D20380D924CFB41A00EF5004CF
:1009AB00C2E5D204020C11D20180C6D20080C0D2A3
:1009BB000280BCD2D580BAD20580B47F2012090E3A
:1009CB002002077401B5090040F11208CBFF120990
:1009DB000E020948D208D20680951208CBFB1208EA
:1009EB00CBFA1208CBF94A4B7006790F7A0D7BFFC5
:1009FB0020022EE509602A7E008E82758300120686
:100A0B002760060EEE650A70F0C2D5EBC0E0EAC0B7
:100A1B00E0E9C0E0EE120C72D0E0F9D0E0FAD0E0E1
:100A2B00FB12060EFF60AAEBC0E0EAC0E0E9C0E0F3
:100A3B0012090ED0E02401F9D0E03400FAD0E0FB2B
:100A4B00E50A0460DCD50AD98087D20280A2120C99
:100A5B005460F7E50A70010412040FA90A600DE552
:100A6B000A600914F50A120CFCEF60F3EA30E70296
:100A7B00F404C3995079EAF4250A0430E701E4043D
:100A8B00F50A800D120C5460C1EA050A250A1204FE
:100A9B000FEA9000D9F030E701E4250A04D50A04E7
:100AAB0020050114120C72E4C0E0120CFC9000D96A
:100ABB00E0601320E70714F01208F6802204F0D050
:100ACB00E014C0E07F001208F6E50A60071208ED9B
:100ADB00150A800B3005031208EDD0E0020948D04F
:100AEB00E00480C4120C54609EE50A0412040F90BB
:100AFB0000D9EAF0E50A2005026001042404120C77
:010B0B007277
:100B0C0074FF04C0E0120CFC1208F6E50A20050282
:100B1C0060031208EDD0E0B50AE87F451209009099
:100B2C0000D9E07F2B30E7047F2DF404C0E01209DC
:100B3C000ED0E075F00A84C0F01208F7D0E012086D
:100B4C00F7020948791080027908C206C2088008A9
:100B5C00D2D5790A8004790AC2D5E50A047002F567
:100B6C000AE4FAFDFEFF1208CBFC7B0820011312ED
:100B7C0008CBFD7B1030000A1208CBFE1208CBFF0D
:100B8C007B20EC3382D592D55013C3E43000069F02
:100B9C00FFE49EFEE42001039DFDE49CFCE4CBF805
:100BAC00C201EC700CCFCECDCCE824F8F870F380F9
:100BBC0017C3EF33FFEE33FEED33FDEC33FCEB33B9
:100BCC00FB994002FB0FD8E9EB300105F8D0E0C4EB
:100BDC0048B201C0E00AEC4D4E4F78207B0070C249
:100BEC00EAB50A0040BCC0E0120C74D0F0D0E02092
:100BFC000104C4C0E0C4B201C0F01208F7D0F0D5B3
:100C0C00F0EB02094812087909E5530B505809B664
:100C1C004C09B2420B544F0B5C440B5C4909CB435F
:100C2C000B62550A8F460AEF450A59470D2F50099A
:100C3C00BA2D09BE2E09E12B09C22309DF200D189C
:100C4C002A097A48000009D9E50AB4FF03750A0697
:100C5C001208CBFC1208CBFD1208CBFE1208CBFFFE
:100C6C009000D202044C790AA2D520031430050955
:100C7C00B910020404B9080104A2D52006025001DF
:100C8C00042002689202B509005034C0E07F203085
:100C9C0003197F30A20272067205500F120CCBC2E0
:100CAC0002C206C205C2087F30800F300503E9C0BE
:100CBC00E012090E300503D0E0F9D0E0B509CC30D4
:100CCC0005177F30B9100C12090E7F583004077FBE
:100CDC00788003B9080312090E3002057F2D020932
:100CEC000E7F202008F87F2B2006F322920280CF63
:100CFC007F00B40700500B24D2F582E43400F58356
:100D0C00E0FF22286E756C6C2900D2011208CB30E2
:100D1C0001F8C201780930D50108F602097A2D5084
:100D2C004349581208CB2403B405004001E4900D4C
:100D3C002A931208FF743A1208FFD20375090402B1
:020D4C000B504A
:10203500D2009000A4120870122071C0E0FF122394
:102045000DD0E040F3121808400122ECC0E0EDC0CD
:10205500E0EEC0E0EFC0E0122071D0F0AFF0D0F0BC
:10206500AEF0D0F0ADF0D0F0ACF080D9E475F00171
:092075009000A412085902060EA5
:101339009000A31207F7E4FFFE7D807C3F9000A395
:10134900E0F8A3E0F9A3E0FAA3E0FB1202AC70060F
:101359009000A30214939000A3E0FCA3E0FDA3E096
:10136900FEA3E0FF1203E4FBA3E0FCA3E0FDA3E07E
:10137900FEA3E0FF1203E4FFB40108E4FFFE7D8051
:101389007C3F22EF64046029EB64046024EBB40120
:1013990030E4FFFEFDFC9000A7E0F8A3E0F9A3E02C
:1013A900FAA3E0FB1202AC60084006E4FFFEFDFC74
:1013B900229000A712080FFFFFFFFF9000A7021459
:1013C90093E49000ABF0A3F0FFFEFDFC9000A3E0D6
:1013D900F8A3E0F9A3E0FAA3E0FB1202AC505F9096
:1013E90000A7E0FCA3E0FDA3E0FEA3E0FF12036376
:1013F9009000ABEEF0A3EFF0FDCCEECCEC12032A9B
:10140900C8ECC8C9EDC9CAEECACBEFCB9000A7E0BA
:10141900FCA3E0FDA3E0FEA3E0FF120011E4FBFA48
:10142900F9F81202AC708A9000A3E0FCA3E0FDA3D6
:10143900E0FEA3E0FF1203FE9000A31207F790005D
:10144900A3E0FCA3E0FDA3E0FEA3E0FF12160190D8
:1014590000A7E0F8A3E0F9A3E0FAA3E0FB12010674
:10146900121BDC9000A71207F79000ACE030E017E0
:101479009000A7E0FCA3E0FDA3E0FEA3E0FF1203B8
:10148900FE9000A71207F79000A7E0FCA3E0FDA3D8
:06149900E0FEA3E0FF22CB
:10039A00E9D2E7C933E833F892D5EDD2E7CD33ECA9
:0703AA0033FC5002B2D52222
:1003B100EC30E7100FBF000C0EBE00080DBD0004AD
:1003C1000BEB6014A2D5EB13FCED92E7FD2274FF59
:1003D100FCFDFEFF22E480F8A2D574FF13FC7D80B2
:0303E100E480EFC6
:1003E400ED33EC33601004700FED547F700574022C
:0A03F40092E0227404220422E422A5
:1003FE00ED33EC33600A047003BD8004ECB2E7FC0D
:01040E0022CB
:10040F00F920E73624F950037907E4F42402FBE5D9
:10041F0082158270021583DBF6E024FB501BE96026
:10042F0014E4F0E582158270021583E004F0B40A3B
:0D043F0008E4F0D9EE7401F00A22C2D522C3
:10044C00ED33EC3392D5FA602AB4FF33EDC2E77B7F
:10045C00FF60067A047971E4227A04797A20D50453
:10046C007A047975224E614E002B494E46002D4977
:10047C004E4600E47A08F0A3DAFC7B00740722C035
:10048C0083C082ECC0E0EDC0E0EEC0E0EFC0E0EA7B
:10049C0075F010A4CAABF075F04DA42BFBE435F04D
:1004AC00FCEA2410FAEB34C5FBEC34D9FCEDC2E7C2
:1004BC00FF75F056A4F42411C5F0F434C58FF0A4E4
:1004CC002AE5F03BE43CF020E714120581D0E0FF74
:1004DC00D0E0FED0E0FDD0E0FC12020F8014F4045A
:1004EC00120581D0E0FFD0E0FED0E0FDD0E0FC12A0
:1004FC000106D082D083E0FAEDD2E7CD33EC332481
:10050C0082FBE4C3CF33CFCE33CECD33CD33DBF34D
:10051C007B0775F00A846004F0A31B0AE5F0F0A3D6
:10052C008FF0740AA4FFACF08EF0740AA42CFEAC0D
:10053C00F050010C8DF0740AA42CFDE435F0F0A3FE
:05054C00DBDE74072254
:1017F500C201C202C203C204F9E4F508F509FCFD01
:10180500FEFFE91000EA20030CB42D04D203D32215
:10181500B42B02D32224D0504794095041240A30D6
:101825000415F88509F0740AA42872E74051C5F03B
:10183500704D85F009D322D202C0E0E4FBFA79208D
:101845007841120106ECF8EDF9EEFAEFFBD0E0FC79
:10185500E412032F1200153001B41508D322240A0F
:10186500200420B4FE0720011AD201D32224EB6004
:101875000424E0700EA2039201D204C203D322C352
:101885000203CFE430040BE509300302F404A2019E
:1018950092033002EA250820D2E5A2E7920450021D
:1018A500F404B4260050D8CCC0E0EDC0E0EEC0E0B2
:1018B500EFC0E0EC120581D0E0FFD0E0FED0E0FD06
:1018C500D0E0FC200405120106800312020F30034C
:0618D500031203FEC32212
:101BA40033DA929E35B16011377FE5FE392184899D
:101BB4003AAEC3FF3C1D955B3D6358473E75FDF04F
:101BC4003F3172183F800000C2D50203D90203CF0F
:101BD400BD80FA50F30203D6ED33EC330460F17B9D
:101BE4003B7AAA79B8783F120106ED33EC3392D5EB
:101BF400247B5011A2D570DB500BED44802404509B
:101C040004A2D580CEEFFBEEFAEDF9ECF8120363F3
:101C1400EFF582F404FC12032F120015C082901B0E
:101C2400A474091205D0ED33CC33D0F092D525F04D
:0A1C3400A2D57001C313CC13FD22EA
:1015CD003E9248DA3ECCCCCD3F2AAAAB400000007B
:1015DD003F8000003F9837F03FB504F33FD744FC00
:1015ED003E3172173EB172173F0515913EDE5BD944
:1015FD00D2008002C200EDD2E7F8CD33EC33047097
:10160D000BBD800592D50203D90203CF40FBD31445
:10161D0060F2F5F07C3FEE7A00C39496C8948B404F
:10162D00230AC89469C8941A401A0AC89468C894C1
:10163D001F40110AC8945AC89425400805F07A0035
:10164D00CDC2E7CDC0F09000AD1207F7EA2323C05D
:10165D00E024DDF582E43415F5831207E712001559
:10166D00ECC0E0EDC0E0EEC0E0EFC0E01207CB90C3
:10167D0000AD1207DB120011D0E0FBD0E0FAD0E094
:10168D00F9D0E0B2E7F812020F9000AD1207F79013
:10169D0015CD74031205C19000AD1207DB120106C2
:1016AD00D0E0600F24E9F582E43415F5831207E7E5
:1016BD001200159000AD1207F7D0E0C3947FFDE442
:1016CD009400FC12032A7B187A727931783F12014B
:1016DD00069000AD1207DB12001530000B7BD97A96
:0916ED005B79DE783E1201062251
:100551003F8000004120000042C80000447A0000B2
:10056100461C400047C35000497424004B18968034
:100571004CBEBC205A0E1BCA6753C21C749DC5AE2B
:10058100FB60065407601C23231205AFEB5438604F
:100591000912059B1205AA120106ECF8EDF9EEFA13
:1005A100EFCB22EB1205AA80F1543803241C9005ED
:1005B10051FE93FC0EEE93FD0EEE930ECE93FF22B1
:1005C100C0E0EFFBEEFAEDF9ECF8120106D0E0F530
:1005D100F0EFFBEEFAEDF9ECF81207CBA3A3A3A31E
:1005E100E8C0E0E9C0E0EAC0E0EBC0E0C0F0120121
:1005F100061207E7A3A3A3A3120015D0F0D0E0FBD6
:0D060100D0E0FAD0E0F9D0E0F8D5F0D42236
:101C4A000222F9E493A3F8E493A34003F68001F295
:101C5A0008DFF48029E493A3F85407240CC8C3339B
:101C6A00C4540F4420C8834004F456800146F6DF6A
:101C7A00E4800B010204081020408090149FE47E47
:101C8A00019360BCA3FF543F30E509541FFEE4935F
:101C9A00A360010ECF54C025E060A840B8E493A326
:101CAA00FAE493A3F8E493A3C8C582C8CAC583CA51
:101CBA00F0A3C8C582C8CAC583CADFE9DEE780BE09
:0115CC00001E
:10060E00BB010689828A83E0225002E722BBFE02EA
:09061E00E32289828A83E493221D
:10062700BB010CE58229F582E5833AF583E0225088
:1006370006E92582F8E622BBFE06E92582F8E222D2
:0D064700E58229F582E5833AF583E49322EC
:10065400BB010689828A83F0225002F722BBFE0185
:02066400F3227F
:10066600A3F8E0C5F025F0F0E58215827002158347
:06067600E0C838F0E822A4
:10067C00E88FF0A4CC8BF0A42CFCE98EF0A42CFC1D
:10068C008AF0EDA42CFCEA8EF0A4CDA8F08BF0A49B
:10069C002DCC3825F0FDE98FF0A42CCD35F0FCEBFA
:1006AC008EF0A4FEA9F0EB8FF0A4CFC5F02ECD39BF
:0F06BC00FEE43CFCEAA42DCE35F0FDE43CFC222C
:1006CB0075F008758200EF2FFFEE33FECD33CDCCE6
:1006DB0033CCC58233C5829BED9AEC99E582984069
:1006EB000CF582EE9BFEED9AFDEC99FC0FD5F0D646
:1006FB00E4CEFBE4CDFAE4CCF9A88222B800C1B970
:10070B000059BA002DEC8BF084CFCECDFCE5F0CBAD
:10071B00F97818EF2FFFEE33FEED33FDEC33FCEBE6
:10072B0033FB10D703994004EB99FB0FD8E5E4F9A1
:10073B00FA227818EF2FFFEE33FEED33FDEC33FC8E
:10074B00C933C910D7059BE99A4007EC9BFCE99A82
:10075B00F90FD8E0E4C9FAE4CCFB2275F010EF2FC7
:10076B00FFEE33FEED33FDCC33CCC833C810D707C7
:10077B009BEC9AE899400AED9BFDEC9AFCE899F802
:0E078B000FD5F0DAE4CDFBE4CCFAE4C8F92295
:0E079900C3E49FFFE49EFEE49DFDE49CFC2271
:1007A700EB9FF5F0EA9E42F0E99D42F0E89C45F0A8
:0107B700221F
:1007B800E8600FECC313FCED13FDEE13FEEF13FF1F
:0307C800D8F12243
:1007CB00E493FC740193FD740293FE740393FF2274
:0C07DB00E0F8A3E0F9A3E0FAA3E0FB22A1
:1007E700E493F8740193F9740293FA740393FB2268
:0C07F700ECF0A3EDF0A3EEF0A3EFF02275
:0C080300ECF208EDF208EEF208EFF22231
:10080F00A8828583F0D083D0821208261208261280
:10081F000826120826E473E493A3C583C5F0C583A5
:10082F00C8C582C8F0A3C583C5F0C583C8C582C833
:01083F002296
:10084000D083D082E493F208740193F20874029387
:09085000F208740393F2740473BE
:10085900F8E0FBA3A3E0F925F0F0E5821582700228
:070869001583E0FA38F022CC
:09087000EBF0A3EAF0A3E9F02289
:10087900D083D082F8E4937012740193700DA3A30E
:1008890093F8740193F5828883E473740293686022
:06089900EFA3A3A380DF22
:10226300EFB40A07740D12226E740A309811A899FC
:10227300B8130CC2983098FDA899C298B811F630DB
:0722830099FDC299F59922B3
:10230D00EFC394094005EF940E4004EFB42003D3BE
:04231D008001C32256
:10089F00EF4E6012EF60010EEDBB010B89828A8370
:1008AF00F0A3DFFCDEFA2289F05007F709DFFCA97D
:0C08BF00F022BBFEFCF309DFFCA9F022D4
:00000001FF
